:1000000008020020AD1E0000C91E0000CD1E000029
:10001000D11E0000D51E0000D91E00000000000007
:10002000000000000000000000000000DD1E0000D5
:10003000E11E000000000000E51E0000991E000007
:10004000991E0000991E0000991E0000991E0000D4
:10005000991E0000811E0000991E0000991E0000DC
:10006000991E0000991E0000991E0000991E0000B4
:10007000991E0000991E0000991E0000991E0000A4
:10008000991E0000991E0000991E0000991E000094
:10009000991E0000991E0000991E0000991E000084
:1000A000991E0000991E0000991E0000FFFFFFFF2F
:1000B000FFFFFFFFFFFFFFFFFFFFFFFFFFFFFFFF50
:1000C000004800473917000000480047110E0000A3
:1000D0002DE9F8434FEA4008DFF81C05DFF81C75EE
:1000E000DFF81C554FF4006606608020386000245D
:1000F0007C604A20F860A1464FF4FA60386278626A
:100100000120B8610520786000F0E7FA0146DFF8C9
:10011000F4040068C0F3C02080B1DFF8EC0406608E
:10012000287840F0C00028707A69900706D5DFF87B
:10013000DC24641C4E20A045106007D3C807E3D41C
:100140000020786038604846BDE8F2834FF08709A8
:10015000F6E710B5DFF8B8044FF060410160002009
:1001600000F028F900F098F800F07DF8AB2000F0DE
:1001700059F900F07AF8002000F01CF900F08CF832
:1001800000F071F89F2000F04DF90021082000F0E8
:1001900024F900F05CF9044600F067F8EF2C01D078
:1001A000052010BD002010BD80B500F094FA00F0CD
:1001B0008BFA00F08EFA062000F034F900F087FA8E
:1001C00000F08BFA800701D4062002BD002002BD9A
:1001D00010B50446FFF7E8FF88B900F0EBF800F02F
:1001E0003FF800F040F8240304F1005000F01AF941
:1001F00000F03BF8BDE810404FF4C87068E710BD50
:1002000010B50446FFF7D0FF88B900F0D3F800F02E
:1002100027F800F028F8E40304F1A44000F002F904
:1002200000F023F8BDE810404FF4487050E710BDCF
:1002300010B50446FFF7B8FF88B900F0BBF800F02E
:100240000FF800F010F8240404F1584000F0EAF828
:1002500000F00BF8BDE810404FF47A7038E710BD9D
:1002600001212020B9E0002096E0012094E080B533
:10027000FFF79AFF78B900F09DF800F00DF8FFF74E
:10028000F2FFC72000F0CEF8FFF7EFFFBDE8024015
:100290004FF4FA601CE702BD012108209DE010B573
:1002A0000320FFF7C5FFA0B90220FFF7C1FF80B907
:1002B0000120FFF7BDFF60B90120FFF7A1FF40B9A2
:1002C00007242046FFF784FF18B9641EE4B2032C0C
:1002D000F7D210BD2DE9F0470F31030A090982B0AA
:1002E00014464FF0000A4FEA03284FEA0119C94D9E
:1002F000C94ECA4F03E008F580780AF5807ACA45EE
:1003000048D2FFF751FF002844D100F053F8FFF71F
:10031000A7FFFFF7A8FF08F1485000F083F801207D
:1003200000F048F8FFF79CFF386940F4403038612E
:100330003968009100980F30009000983860A9EB60
:100340000A00B0F5807F88BF4FF48070002118E06C
:100350003268D302FCD523682B6062682A60A268E9
:100360002A60E2682A601034009A42F480423A60BF
:10037000009B3B6032685302FCD54FF4C0033360EE
:1003800010318142E4D3FFF770FF0120FFF7A0FE98
:100390000028B0D0BDE8F687A14981B00A68009274
:1003A0000028009806BF4008400040F001000860A7
:1003B00001B070479A4928B13E2088600020C8608B
:1003C0003F2006E031200860062088600020C860D9
:1003D0003720486000208863704718B5914A802311
:1003E00013600124402313600029136800931460F4
:1003F0000CBF42F6010142F2014151604FF440014D
:1004000091600321D1602028146108BF864807D07D
:10041000182808BF854803D010280CBF8448854899
:10042000506111BD7B4981B008607C480168009132
:10043000009A42F4804202600099016076480168A7
:100440004A02FCD54FF06012026001B0704781B0E3
:100450000020009006227148016941F48031016159
:1004600075494A6008228A6037220A6008224A6376
:1004700001680091009A42F4804202600099016094
:10048000654801684A06FCD54FF060120260614879
:100490000168009100980002000E01B07047F8B5A5
:1004A0000646154601F10F0400F02AF900F013F991
:1004B00001212020FFF791FF00F00BF906F1D64053
:1004C000FFF7B0FF5C4E0220706001210020B06099
:1004D00024093320306000F0F5F80020FFF7A2FF78
:1004E0000220706042F610013C20B06003203060B2
:1004F0003C207063514A4948464B00F078F800228E
:1005000011E046F6100606600160434E376817F0AA
:100510000F0FFBD000F00DF8103200F00AF800F0D9
:1005200008F800F006F8B2EB041FEAD3BDE8F24089
:10053000F2E01E6845F8046B7047F8B50F31090901
:10054000074614460D0100F0DBF800F0C4F8012165
:100550002020FFF742FF00F0BCF807F1D640FFF77C
:1005600061FF354F022000267860BE60332038607E
:1005700000F0AAF80020FFF755FF0220786042F64D
:1005800010013C20B860032038603C2078630023D1
:1005900022482A4A00F02BF81E4A01E0103410339A
:1005A000AB421ED246F61007076001601A4FD7F81B
:1005B00000C01CF00F0FFAD01768D4F800C0BC457B
:1005C00002BF1768D4F804C0BC4509D11768D4F835
:1005D00008C0BC4502BF1768D4F80CC0BC45DDD0CC
:1005E000012600F074F8300018BF0120F2BD016050
:1005F0004260134A0261704780E100E000420C4013
:10060000864E0F4000E200E080E200E004200F4050
:1006100054300F4000A1064000A2064004A006404E
:1006200000030C4000A0064000C400A000C40098D5
:1006300000C4009000C4008804030C400001C00006
:1006400000C403A038B5002400B1682400F045F8C8
:1006500000F06800844230D000F03DF800F034F83B
:1006600000F037F85020FFF7DDFE00F030F800F022
:1006700032F800F029F800F02CF83520FFF7D2FE10
:1006800000F01FF8FFF7E3FE054600F020F800F049
:1006900022F801211820FFF7A0FE00F01AF805EB60
:1006A000042505F58030FFF7BDFE00F010F800F0DE
:1006B00014F800F06800844201D1002032BD01200E
:1006C00032BD0021082088E60121082085E60120AE
:1006D00062E6002060E600206CE610B5FFF7FBFF45
:1006E000FFF7F2FFFFF7F5FF0520FFF79BFEFFF78F
:1006F000E8FFFFF7ACFE0446FFF7E9FF204610BD18
:1007000080B5FFF7E8FFFFF7DFFFFFF7E2FF042008
:10071000FFF788FEBDE8024001203DE62DE9F843E1
:10072000042000F08BFADFF8EC83404600F0F7FA83
:100730008146C9F3C01000285BD1C9F3801000289E
:10074000DFF8D4433CD1C9F380000028DFF8CC5354
:10075000DFF8CC63DFF8CC73C9F3400018D018B1D0
:10076000002100F07AF814E000F076F80120207003
:100770004FF48A70DFF8B02338800021318013787D
:10078000DFF8A8135843084400F58A70286000E099
:1007900020B14046BDE8F24300F0C5BA404600F043
:1007A000C2FA31883A88914254D229680870286880
:1007B000411C29603188491C3180BDE8F1434FE07C
:1007C000DFF86C53DFF86C63DFF86C73C9F38000FB
:1007D000B8B100F041F8C9F3400030BB01202070EF
:1007E0003988B1B9307828B9404600F09AFA00202B
:1007F00038802FE00FF2CC30286002203880307033
:1008000007E019F00A0F25D15FEAC97013D43888C0
:1008100058B129680978404600F083FA2868411CDD
:10082000296039884A1E3A8014E04046BDE8F44306
:10083000002100F076BA404600F06AFA30780228CB
:1008400008D100213170BD4801688908890041F054
:1008500004010160BDE8F1830121404600F01DBAAA
:100860002DE9F84FB048B14A0178DFF8D4B2B54B62
:100870009BF802E0DFF8D082AF4DAD4FDFF8CCA29D
:100880004FF48A7048431044009000F58A7CA448D5
:1008900006889BF801209BF80000022E40F20D1400
:1008A00067D1BCF80010AAF80010012906D10FF298
:1008B000F42038601E202880BDE8F18F022904D181
:1008C0000FF2B02038602D20F5E703290DD19949AA
:1008D000087810B900222A80EEE70FF2E82139608B
:1008E0000220944928800870E6E7052908BF0228FD
:1008F000E2D1BEF1010F03D0BEF1030F02D0DBE75E
:100900000020D8E798F80000DFF8449204FB00F1DB
:100910001944904B1B78461C082A06F0030602D0A7
:100920000E2A0ED01FE0834207D00622484600F070
:10093000FFF9C7F8009006240BE0C7F800900624E2
:1009400012E083420CD02246484600F0F1F9C7F885
:10095000009099F80500FF2806D088F8006003E0B1
:10096000C7F8009000E000247B482C800121017032
:10097000A2E7042E1AD10420AAF800009CF8030074
:100980008BF8000001289CF8021001F00F02C1F35F
:1009900001118BF801208BF802108DD16549087088
:1009A00066480168C908C900016085E7052E83DB38
:1009B000BAF800B0DFF8A4A1BBF1050F40F07B80CE
:1009C000BCF80250AD1CAE4208BF0328EDD1002098
:1009D0000AF80100BEF1030F08BF072AE5D100980D
:1009E0001AF801105E4D084400F219110878497890
:1009F000072809D15B4F4C4E00223A70327088F8BC
:100A00000020544F3A702A70524F3A7898F800609C
:100A1000571CFFB2042F08BF0027B742C5D054436C
:100A20001A1906231370117100235370FF21082334
:100A30009370D07051712C784B49631C152803F0CA
:100A4000030331D8DFE800F01315172721233025E1
:100A500030303030303030190B0D0F11292B0D2074
:100A60001EE011201CE00F201AE0102018E00220E8
:100A700016E0032014E0042012E00B201070012087
:100A800050700E2090700C200AE003200DE04520ED
:100A90000BE0062009E0052002E0122000E0132010
:100AA000087000F025F802E0A02050711C4629488B
:100AB0002C70077000E7BBF1040FFBD1022806D1B0
:100AC000062E04BFBCF804000528F3D111E7032863
:100AD000F0D1092EEEDBBCF80600B51FA84204BF1A
:100AE000BCF804000528E5D104250AF8015071E797
:100AF00030B50D481C4A017813781C4C1C4D6354CA
:100B000001246C540023491C137001F0030101708F
:100B100030BD000000000E40020D0020D00C00206F
:100B2000F80C0020F60C0020FC0C00201002002025
:100B3000CC0C0020FF0C0020F40C002000000C4026
:100B4000030D002074070020FD0C0020FA0C00208B
:100B5000B40B0020FE0C0020010D0020C80C00206A
:100B6000A80B0020C40C0020000D0020AC0B0020BE
:100B7000B00B00200600FF0902A101850715002621
:100B8000FF0075080900960901B102850809009562
:100B90000381020900B102850E0900960A01B10223
:100BA000C00000001E0000012D000200030006002E
:100BB00000000000040005006A056D01030000004C
:100BC0000000000000000000C0B205282F4B33D801
:100BD000DFE800F0030B131B232B187800F0F00064
:100BE000024342EA410119707047587800F0F00062
:100BF000024342EA410159707047987800F0F000D2
:100C0000024342EA410199707047D87800F0F00041
:100C1000024342EA4101D9707047187900F0F000B0
:100C2000024342EA410119717047587900F0F0001F
:100C3000024342EA4101597170470000C0B20528E1
:100C4000124921D8DFE800F003080D12171C0878BC
:100C500040F0C000087070474A7842F0C0024A7005
:100C60007047887840F0C00088707047C87840F0BE
:100C7000C000C8707047087940F0C0000871704724
:100C8000487940F0C0004871704700002080034060
:100C9000016841F080010160704710B51B4C43684A
:100CA000226803F0F803134301290CBF43F010033B
:100CB00003F0EF03436010BD30B50A78134D02F026
:100CC000FE02C260CA6843684C682A6003F01F03D2
:100CD00043EA441303F0F80391F908101343002981
:100CE00014BF43F0100303F0EF03436018210161C8
:100CF00030BD02210161012101614168CA07FCD5B3
:100D0000002002490860704700000000F00C00203D
:100D1000016901F0E00141F01801016170470069CB
:100D200002E081607047806800F0FF0070470000BB
:100D300062B38B0708D0521E11F8013B00F8013B4B
:100D400000F024808B07F6D1830740F0208000BF9D
:100D5000103A07D330B4B1E83810103AA0E8381090
:100D6000F9D230BC530724BFB1E80810A0E808103E
:100D700044BF51F8043B40F8043BD20724BF31F88C
:100D8000022B20F8022B44BF0B7803707047121F10
:100D900017D35B0009D151F8043B20F8023B1B0C30
:100DA000121F20F8023BF6D20BE051F8043B00F88A
:100DB000013B1B0A20F8023B1B0C121F00F8013BF1
:100DC000F3D238BF121D521E24BF11F8013B00F8A8
:100DD000013BF8D87047000001000AD4DFF858241E
:100DE000400952F8200001F01F01C84000F0010046
:100DF000704700207047010009D4012200F01F0055
:100E000002FA00F0DFF83424490942F82100704763
:100E100080B50020016881F3088872B6FFF799F960
:100E200000F0AFFA0120FFF70DFC00F00FF8BFF360
:100E30004F8FDFF80C14DFF80C040A6802F4E0624C
:100E400002430A60BFF34F8F00BFFDE7F0B5DFF844
:100E5000F8430FF2104604F582750120E87185B061
:100E60000020287300F043F9074606218028AF7060
:100E7000E97008D081281CBF822883284DD084289F
:100E800000F0C580872800F0D580882821D08B28E5
:100E900000F0D880E02806D0E12806D0E22808D06B
:100EA000E82804D0F6E00620F6E00320F4E0452030
:100EB000F2E042F22007387848B1FF2807D017F84F
:100EC000010B00F06EF942F230008742F3D10020AE
:100ED000E2E0684631461022FFF73AFF2F8100F02A
:100EE00006F9687300F000F900F0EEF8002840F011
:100EF0009780687B042803D38621E9708620CBE0A5
:100F0000062000F04EF9022000F0F3F8697B5DF84E
:100F10002110CE4800F02CFBC0E0812F2F8108BFAC
:100F2000042003D0822F0CBF02200820A87100F0FB
:100F3000DEF8A07000F0D8F8E07000F0D5F8287165
:100F400000F0D2F8287300F0CFF800F0C3F800F0FA
:100F500028F9E8780106DFD42979AA796788C800DA
:100F60006881082A287B07EB00472BD1221DC90086
:100F70003846FFF794FAA178E078697141186971F1
:100F8000002005E0221D6979125C51186971401C2E
:100F900000F08AF8F6D36879C043401C6871A078E5
:100FA00000F0FFF8E07800F0FCF8002005E0211DDB
:100FB000085C00F0F6F82888401C00F075F8F6D3BD
:100FC000687969E00020288103E000F090F800F0E3
:100FD00070F800F069F8F8D300F089F800F07AF8BA
:100FE000010625D4A879042808D12979221DC90031
:100FF0003846FFF7A2FAD8B1812018E02979221DDE
:10100000C9003846FFF766F990B182200FE02F81C2
:1010100000F06DF8A87300F067F800F055F808B11B
:10102000902038E0A87BFFF7D3F808B18420E8705F
:10103000E87831E000F0B5F8022000F05AF800201E
:10104000E8712FE02F81002003E000F050F800F05D
:1010500030F8288028880428F7DB00F048F800F0F2
:1010600033F808B19020E2E72079262804BF61799F
:101070006E2905D1A079492804BFE179302901D032
:101080008720D4E70020FFF7DDFAC0B20028CFD0D8
:101090008920CCE7A020E87000F083F8E8790028E8
:1010A0007FF4E0AE05B0F0BD2880698928888842C9
:1010B00070472A88211D8854221D28882989125C9E
:1010C00051182981401C704768712989401828816E
:1010D000C0B270476871298940182881C0B208B130
:1010E0009020E870E878704729894018288100200E
:1010F0002DE070B504465649564E4FF40060086026
:1011000080210025316075604A20F0604FF4FA605C
:10111000306270620120B0610520706011E00B2028
:10112000FFF75AFE0028FAD00B20FFF764FE4A4969
:101130000120086071698807F1D548494E20086090
:101140006D1CA542EBD300217160316070BD70B59C
:1011500082B006463D4C424D02E00720FFF74BFEB1
:101160003E4A4E21116030001CBF2878002801D073
:10117000FF2076BD0720FFF72FFE0028F0D0204685
:1011800000F0E2F98DF800009DF900000028E4D19C
:10119000204600F0C3F904460720FFF72CFEE0B21A
:1011A00076BD80B50146294800F0C2F902E02B4A1D
:1011B0004E2111600820FFF70FFE0028F7D0BDE890
:1011C0000240082017E680B50121402000F03CFADB
:1011D00002220021012000F07EFA012202210120DA
:1011E00000F053FA01220221012000F061FA0122ED
:1011F0000421012000F036FABDE808400422002155
:10120000012000F068BA10B5104C86B0204600F0FE
:10121000FFF84FF4964000900821002001910290C1
:10122000002130200391049005912046694600F08A
:10123000F4F806B010BD000000E200E080E200E03B
:101240000CED00E00400FA051002002000100E4032
:1012500080E100E000420C40D8D0E94304200F4078
:10126000020D0020004B00000096000000E100008D
:1012700000C201007CB572B6524800220270012102
:10128000012000F0E1F9504A504B002151608020CC
:101290009063586800F0FE005860186B40F0010041
:1012A0001863986B40F001009863182000BF401E3F
:1012B000FCD1474D474C2878A8B92879FF2804BFAE
:1012C0006979FF2909D0002804BF6979002904D071
:1012D000002804BF6979FF2905D11068010602D4EE
:1012E0001968C80741D5FFF76EFFFFF78CFF00F0C4
:1012F000D8FBFEF72EFF00F044F80121082000F093
:10130000A3F93020009000210191684600F04FFCC5
:1013100000F05BFC0120FFF795F962B62E4D2F4ED1
:101320000120FFF714FF86F806012978A1B9E0280B
:10133000F6D172B60620FFF734FFFFF787FDBFF343
:101340004F8F274927480A6802F4E06202430A6087
:10135000BFF34F8F00BFFDE720780028EFD0224A6F
:101360004E21116000F098FAF6E74FF440504168C2
:10137000A1606160006880F308880846804700200B
:1013800076BD1049194A0120087000211170002310
:10139000104A10700020164A1170164A1070164A32
:1013A0001170164A1070164A1170164A10700A4AC7
:1013B00011701549154A13540B54401C0428FADBCC
:1013C000704700000000002000000C4000010C40AD
:1013D000FCEF0300E40C0020020D002010020020AE
:1013E0000CED00E00400FA0504200F40000D002081
:1013F000010D0020C40C0020FC0C0020FD0C00207E
:10140000FE0C0020A80B0020B00B0020AC0B00202D
:10141000016841F00101016070472DE9F041074684
:101420000E46F968706801F0B0010143706901432C
:1014300041F00101F9600025F969B06801F0EF01A0
:10144000014341F00401F96147F29F70B96801401E
:10145000F0680143B960A84600F0C6FB00F0E5F86B
:10146000B1FBF2F13A68900748BF4900002040F212
:1014700079546422A8F1C803A34243D318B1802D44
:1014800002D2AD0000E002250B095A4333686B43DA
:10149000B2FBF3F8401CECE7401E000104F04004EE
:1014A00000F03000204303F00F031843386169B1A6
:1014B000C8F1640890444FEA08116420B1FBF0F0D1
:1014C00000B90120796900F00F007861B9693269CB
:1014D000102A41F0100008D0202A0AD1F86840F004
:1014E0002000F86001F0EF0007E0F96801F0DF018B
:1014F00002E0F96841F02001F96000F0FE00B861F7
:10150000BDE8F081B8FBF2F33C695A43B8EB020145
:101510000CBF24F0400444F04004BDE70146886855
:101520004968400000F4807001F0FF0108437047F3
:10153000C2684B0802F07F0203F080031A43C260C6
:1015400001F0FF014160704701460020896801F009
:101550001C01042907D0082903D0102905D1012036
:101560007047022070470320704701B10420704784
:101570002DE9F04106468846F06800F0DF00F06093
:101580000027B06900F0EF00B061002400F02CFBF0
:1015900000F04BF8B1FBF2F0316800258A0748BF34
:1015A00040006421A5F1C80240F279539A4230D339
:1015B0001CB1802F02D2BF0000E002270209514374
:1015C00007FB08F2B1FBF2F5641CEAE7641E240194
:1015D00003F0400304F030041C4302F00F021443F4
:1015E000346160B1C5F164054D192D016420B5FB6E
:1015F000F0F000B90120716900F00F007061F0682F
:1016000040F02000F060B06940F01000B061BDE82B
:10161000F0816422B5FBF2F233695143681A0CBFC2
:1016200023F0400343F04003D0E70548054B016831
:101630001868000A012200F00F0082407047000085
:101640000802002008300F40054A136801290CBF2A
:10165000184323EA0000C0F309001060704700003F
:1016600050300F40FF2904D10FF2A40101EBC0015B
:1016700049780FF2880353F82000012A42680CBF12
:10168000114322EA010141607047FF2904D10FF2A2
:10169000800101EBC001C9790FF2600353F820000B
:1016A000012A826B0CBF114322EA0101816370475A
:1016B000FF2904D10FF2580101EBC00149790FF263
:1016C0003C0353F82000012AC26A0CBF114322EAEE
:1016D0000101C1627047FF2A05D10FF2340202EB0B
:1016E000C0020A4492780FF2140353F8200000EB72
:1016F000810081680A4382607047000000000C404E
:1017000000010C4000020C4000030C4000040C409F
:10171000FFFF3310FF0000FFFFFFDE38FFFFFFFF7A
:1017200003030303030303033F3F3F3D3F3F3F3FAB
:101730007F7F1F197F7F7F7F10B50020016881F3B5
:10174000088872B600F0DFF9DFF8F8130A68824201
:1017500018BF0860FEF7FDFCFFF713FE0120FEF73F
:1017600071FF62B6DFF8E04305E0DFF8E0034E21E9
:10177000016000F091F820780028F6D1BFF34F8F78
:10178000DFF8CC13DFF8CC030A6802F4E06202430E
:101790000A60BFF34F8F00BFFDE70146DFF8B803D3
:1017A000F0B50578DFF8B46328444FF48A72007905
:1017B0005543FF23002435442A18891E02F21B12C8
:1017C0000ED0491E01291BD909393BD0491E07D02B
:1017D000891E022904D9C91E34D0491E3BD050E0CD
:1017E000002146182E44491C96F814613419082922
:1017F000E4B2F6D350780419E4B2002C41D031E0C1
:101800001279D200002100F03EF8FCD311186E18B6
:1018100096F820110C19E4B224BB0C2106E04718FD
:101820002F44491C97F814713C19E4B289B202F1B3
:101830000C07B942F3D396F821010419E4B204B3BA
:1018400082231EE0002100F01EF8FCDB5079041911
:10185000E4B2B4B106E000F016F8FCDB50790419EC
:10186000E4B20CB181230CE01178262904BF507832
:101870006E2805D19178492904BFD078302800D04E
:1018800083231846F0BD46182E44491C96F814616F
:1018900034190C29E4B270472DE9F84FDFF8B892FB
:1018A000DFF8BCA299F8008046460AEB060000F576
:1018B00087652C78002C1CBF2879002818D00021BF
:1018C00029712046FFF769FFFF2840F20D1710D05D
:1018D0009AF834140AF105024F43491CD05500F020
:1018E000DAF8287008F1010000F0030089F8000020
:1018F000CFE04FF48A7809EB060E984D08FB06F10D
:10190000A61E6918112E01F5927201F21B1363D8FD
:10191000DFE806F00927275F62626262626246249E
:1019200062191121465B9EF80400084490F81B01DF
:10193000FEF74EFC50E09EF80400084490F81B01AE
:10194000FEF75EFC48E09EF80400084490F81B0196
:10195000FEF76EFC40E0FEF78AFC3DE0FEF79FFCE0
:101960003AE09EF8040038B918791E684FEAC00BB7
:1019700001F59070009004E05E68187A00924FEADA
:10198000C00B032C009A5946304606D1FEF7A2FC44
:10199000C1B209BB009A59463046FEF7CEFD1BE0A6
:1019A0009EF8040018B918681B79DB0004E0586839
:1019B0001B7ADB0001F59472122C08BF42F2200062
:1019C0001946FEF76CFD002006E00020FEF73AFE07
:1019D00002E05D490020087072B69AF834144F4353
:1019E0000AEB0702507199F800300AEB030494F8EF
:1019F00038740C2F18BF122F40D109F1040608FBD0
:101A000003F02D18F05C05F21F1728B9D5F81BE17B
:101A10003F7805F5927004E0D7F800E03F7905F5CE
:101A20009470C2F806E04FF0000C9772E64612F888
:101A30000E500EF1010E6544BEF10B0F5FFA85FCEE
:101A4000F5DB02F20B186FEA0C056D1C4FF0000C71
:101A500088F80050E64609E010F80E5002EB0E063A
:101A60000EF1010EF57265445FFA85FCBEEBC70FFF
:101A7000F2DB6FEA0C00401C88F80100491C00F002
:101A80000AF85B1C84F8380403F0030389F800307B
:101A900062B6BDE8F18F01F003018AF8341400202A
:101AA000704738B501212020FFF7CEFD00F01FF868
:101AB0002C4C2D4D00F027F82060002060600120A4
:101AC00020720020E0602846FFF7E2F82846FFF782
:101AD00010F921462846FFF7EFF824492020086036
:101AE0000122BDE8384003210420FFF76DB82048EB
:101AF000002141600C2101600F21816241600321BE
:101B00008160816370471B49486820F0200048606D
:101B1000086B20F020000863C86A40F02000C8620B
:101B2000886B40F020008863182000BF401EFCD165
:101B300008688206CA6A22F020024CBF1220B02038
:101B4000CA6270470C000E40E40C002004200F40D5
:101B50000CED00E00400FA05C40C00201002002087
:101B600074070020D40C002000000E4000E100E0CB
:101B700000000C4000040C40194B996802460120FB
:101B800029B9186800F0860002431A6000207047E7
:101B9000134B99680246012041B91868012A0CBF0D
:101BA00040F0020020F0020018600020704710B5DD
:101BB0000C4A11680446012031B92068FFF7DCFFA8
:101BC0006068FFF7E5FF002010BD054A916801201D
:101BD00021B9106840F080001060002070470000BC
:101BE00000200F4008200F4030B55C4A5C4B106865
:101BF000D569002110F4807014BF1C46594C05F0C3
:101C00000305032D09D19C4208D1D369564C1B0A08
:101C10001B02A34202D1554900E02146526802F05E
:101C20000702042A0ED8DFE802F00E0305070A00B7
:101C3000490808E0890806E020B1C90803E008B1B6
:101C4000090900E000214A48016030BD81B0002050
:101C5000009000900090474988680028FCD100223D
:101C60000A60086800065CBFB12048603B494A60D2
:101C70000120414A1060CA6AC2F31302CA62C86AEC
:101C800040F06250C8620A6842F002020A60C86A04
:101C900040F48070C862C86A40F00100C862C86A37
:101CA00000F00200009000980028F8D10A6842F481
:101CB00080720A60086800F40070009002E002F48C
:101CC0000072009200980A68B0F5007FF7D15208C0
:101CD00052000A60C86A244AC0F31300C862C86A86
:101CE00040F0C860C862C86920F00200C861C869D5
:101CF00040084000C861CA61C86A40F00100C8627B
:101D0000C86A00F00200009000980028F8D1CA6A62
:101D1000C2F31302CA620022C86A40F00360C862BC
:101D2000C86940F00100C8618A60C86A40F00100DB
:101D3000C862C86A00F00200009000980028F8D13C
:101D4000CA6942F00202CA61C86900F0040000904A
:101D500000980428F8D101B07047000004300F400B
:101D60000024F40000093D000010F0480048E8019C
:101D70000802002000200F4000C0084019E050F881
:101D8000042BD30744BFA9F101039A18091F0023AC
:101D9000042942F8043BF9D25FEA817C134604D55A
:101DA0004FF0000CA2F800C09B1CC90744BF0021E3
:101DB000197050F8041B0029E1D1704710B450F895
:101DC000041B79B10268436802440830DC0744BF51
:101DD000A9F10104E31852F8044B43F8044B091F1E
:101DE000F9D1ECE710BC704710B5074979441831B8
:101DF000064C7C44163404E00A68081D11448847E8
:101E00000146A142F8D110BD0800000030000000DA
:101E10006DFFFFFF0400000000000020F80A000032
:101E2000100200200000000095FFFFFF04000000EA
:101E3000B8000000080200200000000000F00BF8CD
:101E4000002801D0FFF7D0FF0020AFF30080FFF79C
:101E500011FA00F002F80120704700F001B800000C
:101E60000746384600F002F8FBE7000080B5AFF304
:101E70000080024A11001820ABBEFBE726000200DA
:101E800003480078002800F007800248004700005F
:101E9000000000201D070000EFF303803F210840F1
:101EA0008000014A80580047003000000148804708
:101EB000014800474D1C0000BD1E0000AFF300802C
:101EC000AFF30080FFF7BAFFFFF7FEBFFFF7FEBFDB
:101ED000FFF7FEBFFFF7FEBFFFF7FEBFFFF7FEBF36
:0C1EE000FFF7FEBFFFF7FEBF0048E8015F
:101EEC00FFFFFFFFFFFFFFFFFFFFFFFFFFFFFFFFF6
:101EFC00FFFFFFFFFFFFFFFFFFFFFFFFFFFFFFFFE6
:101F0C00FFFFFFFFFFFFFFFFFFFFFFFFFFFFFFFFD5
:101F1C00FFFFFFFFFFFFFFFFFFFFFFFFFFFFFFFFC5
:101F2C00FFFFFFFFFFFFFFFFFFFFFFFFFFFFFFFFB5
:101F3C00FFFFFFFFFFFFFFFFFFFFFFFFFFFFFFFFA5
:101F4C00FFFFFFFFFFFFFFFFFFFFFFFFFFFFFFFF95
:101F5C00FFFFFFFFFFFFFFFFFFFFFFFFFFFFFFFF85
:101F6C00FFFFFFFFFFFFFFFFFFFFFFFFFFFFFFFF75
:101F7C00FFFFFFFFFFFFFFFFFFFFFFFFFFFFFFFF65
:101F8C00FFFFFFFFFFFFFFFFFFFFFFFFFFFFFFFF55
:101F9C00FFFFFFFFFFFFFFFFFFFFFFFFFFFFFFFF45
:101FAC00FFFFFFFFFFFFFFFFFFFFFFFFFFFFFFFF35
:101FBC00FFFFFFFFFFFFFFFFFFFFFFFFFFFFFFFF25
:101FCC00FFFFFFFFFFFFFFFFFFFFFFFFFFFFFFFF15
:101FDC00FFFFFFFFFFFFFFFFFFFFFFFFFFFFFFFF05
:101FEC00FFFFFFFFFFFFFFFFFFFFFFFFFFFFFFFFF5
:101FFC00FFFFFFFFFFFFFFFFFFFFFFFFFFFFFFFFE5
:10200C00FFFFFFFFFFFFFFFFFFFFFFFFFFFFFFFFD4
:04201C00FFFFFFFFC4
:10202000535544452D31305331324D492D303158BF
:10203000FFFFFFFFFFFFFFFFFFFFFFFFFFFFFFFFB0
:10204000FFFFFFFFFFFFFFFFFFFFFFFFFFFFFFFFA0
:10205000FFFFFFFFFFFFFFFFFFFFFFFFFFFFFFFF90
:10206000FFFFFFFFFFFFFFFFFFFFFFFFFFFFFFFF80
:103000000802002059650100D5650100D96501005D
:10301000F72D0100F92D0100FB2D0100000000003B
:10302000000000000000000000000000DD6501005D
:10303000E165010000000000E5650100BB2D010015
:103040001F2D0100212D0100232D0100252D010040
:10305000892C0100295701002B2D0100292D010089
:10306000272D0100352D0100972D0100B72D0100FE
:10307000B92D0100DB2D0100DD2D0100DF2D010048
:10308000E12D0100ED2D0100EF2D0100F12D0100DA
:10309000F32D0100F52D0100E72D0100E92D0100C0
:0C30A000EB2D0100E32D0100E52D0100E7
:1030AC00FFFFFFFFFFFFFFFFFFFFFFFFFFFFFFFF24
:0430BC00FFFFFFFF14
:1030C00080B50EF014FD0FF055F905480078002882
:1030D00005D003480078012801D112F04BF801BD5A
:1030E000FA0B0020113501000C0A00003802002004
:1030F00000010000001C0020000000003935010024
:103100000C00000034000000080200200009FD004F
:103110000005F9000016FAFF010017F0000748E863
:1031200001020019010100002DE9F04700240020F0
:10313000DFF8701A0870DFF8700A0078C0F34010EA
:10314000C0B2002807D00020DFF8601A0870002005
:10315000DFF85C1A0870DFF8500A0078C0F38000CE
:10316000C0B2002800F0EB81DFF8480A00780028A0
:1031700040F0E581DFF8340A007801280BD0C0F078
:103180009E81032800F0A18034D3052800F09980A7
:10319000C0F09F8093E1DFF8200A007810F0F7007C
:1031A000DFF8141A08700220DFF8001A08700120F6
:1031B000DFF8081A0870DFF8080A0088DFF8041A38
:1031C000DFF8F829127821F81200DFF8FC090088EE
:1031D000DFF8F819DFF8E429127821F81200DFF897
:1031E000F0090088DFF8EC19DFF8D029127821F80F
:1031F000120054E2DFF8C009007850F00800DFF850
:10320000B8190870DFF8A009007850F02000DFF846
:10321000981908700320DFF8941908700220DFF86D
:103220009C190870DFF898090088DFF89819DFF812
:103230008C29127821F81200DFF88C090088DFF859
:103240008C19DFF87829127821F81200DFF880094C
:103250000088DFF88019DFF86429127821F812005D
:10326000DFF86009B0F90410DFF85809B0F9000080
:10327000091A09B2022091FBF0F0DFF85C1908800E
:10328000DFF84809B0F90410DFF84009B0F9000090
:10329000091A09B2022091FBF0F0DFF8401908800A
:1032A000DFF83009B0F90410DFF82809B0F90000A0
:1032B000091A09B2022091FBF0F0DFF82419088006
:1032C000EDE10020DFF8E81808700420DFF8DC18D2
:1032D0000870DFF8E408007850F00800DFF8D8182C
:1032E0000870DFF8D8080078022807DADFF8CC0881
:1032F0000078401CDFF8C418087003E00020DFF8F5
:10330000BC180870DFF8B4080078022804DBDFF886
:10331000AC080078811E03E0DFF8A0080178491CA2
:10332000DFF89C080088DFF89C28DFF890381B78CD
:1033300022F81300DFF890080088DFF89028DFF803
:103340007C381B7822F81300DFF884080088DFF847
:103350008428DFF868381B7822F81300DFF8640847
:10336000DFF85828127830F91220DFF85808C9B26F
:1033700030F91100121A12B2022092FBF0F0DFF8BD
:1033800058281080DFF84408DFF83028127830F928
:103390001220DFF83808C9B230F91100121A12B23F
:1033A000022092FBF0F0DFF834281080DFF80C08E0
:1033B0000078002805D0DFF8040890F90000401ECE
:1033C00004E0DFF8F80790F90000801CDFF8F4272C
:1033D000DFF8E8371B7832F91330DFF8E82740B21E
:1033E00032F910209A1ADFF8DC3740B233F9107046
:1033F000DFF8D037C9B233F91130FB1A1BB20B2BEF
:1034000003DB12B212F5167F08DB1BB213F10A0FB1
:1034100018DA12B240F259239A4213DBDFF89827E8
:10342000127812F0F702DFF890371A70DFF8B4273D
:10343000127852F01002DFF8AC371A700022DFF871
:103440006C371A70DFF88427DFF870371B7832F991
:103450001330DFF8782740B232F910209A1ADFF8DB
:103460006C3740B233F91000DFF86037C9B233F976
:103470001130C31A1BB20B2B03DB12B212F5167FED
:1034800008DB1BB213F10A0F18DA12B240F259200E
:10349000824213DBDFF82007007810F0F700DFF836
:1034A00018170870DFF83C07007850F01000DFF8BC
:1034B000341708700020DFF8F4160870EFE00120E0
:1034C000DFF8E8160870DFF8F006007810F0F70073
:1034D000DFF8E41608700020DFF8E016087024E03A
:1034E000DFF8DC060088DFF8DC16DFF8D02612787B
:1034F00021F81200DFF8D0060088DFF8D016DFF8D8
:10350000BC26127821F81200DFF8C4060088DFF824
:10351000C416DFF8A826127821F81200DFF89C06FE
:103520000078401CDFF894160870DFF890060078E9
:103530000328D5DB0020DFF884160870AFE0DFF841
:103540006C060078012808D0C0F09980032826D0A6
:1035500014D305286DD033D391E0DFF85C060078F2
:1035600050F00800DFF8501608700020DFF87816D9
:1035700008700020DFF83416087090E0DFF8380695
:10358000007850F00800DFF8301608700020DFF8EF
:10359000581608700020DFF8141608707FE0DFF876
:1035A0001806007850F00800DFF80C1608700020AC
:1035B000DFF8341608700020DFF8F01508706EE0B0
:1035C000DFF8F405007850F00800DFF8EC1508701B
:1035D0000020DFF8141608700520DFF8D0150870F9
:1035E000DFF808060078C0071ED5DFF8040600786B
:1035F000C0F30010C0B2002804D00720DFF8B015D7
:10360000087015E0DFF8E8050078C0F34010C0B29C
:10361000002804D00320DFF89815087008E0012086
:10362000DFF88C15087003E00120DFF884150870BE
:1036300035E0DFF87C050078002813D0DFF870054E
:103640000078401EDFF868150870DFF86C05007818
:1036500050F00800DFF8601508700020DFF88815CA
:1036600008700BE0DFF85005007810F0F700DFF885
:10367000481508700020DFF8341508700FE0DFF8F7
:103680003805007810F0F700DFF82C1508700020DE
:10369000DFF81C1508700020DFF810150870DFF83F
:1036A0000C050078012800F07B82DFF80005007827
:1036B000032840F07281DFF80805B0F80080DFF8D9
:1036C00008050788DFF8F804B0F80090DFF8F80480
:1036D000B0F800A0DFF80005B0F90000B9EBC009B0
:1036E000DFF8F804B0F90000BAEBC00ADFF804050F
:1036F000B0F9000000F28D60484540DBDFF8F404CB
:10370000B0F9000000F28D60404580F28480BAEB91
:103710000700DFF8E014B1F9001001F28D61B1EBA0
:1037200008014843B9EB080190FBF1F03818DFF8C5
:10373000C814B1F9001001F2CA61884210DBDFF849
:10374000B814B1F9001001F588413731814207DB27
:10375000DFF8A014B1F9005005F28D6506000124D0
:10376000DFF87804B0F9000005F05EFCDFF86814BB
:10377000B1F90010490081424DDA00244BE0DFF836
:103780007404B0F9000000F5B0407330814542DBAD
:10379000DFF86004B0F9000000F5B04073308045F8
:1037A00039DABAEB0700DFF84C14B1F9001001F573
:1037B000B0417331B1EB08014843B9EB080190FB0C
:1037C000F1F03818DFF83014B1F9001001F2CA61D5
:1037D000884211DBDFF82014B1F9001001F58841AF
:1037E0003731814208DBDFF80C14B1F9005005F5E0
:1037F000B045733506000124DFF8E003B0F900009E
:1038000005F012FCDFF8D013B1F90010494249006D
:10381000814200DA002464B2012C00F09280DFF8CB
:10382000D803B0F9000000F2CA60504541DBDFF870
:10383000C803B0F9000000F2CA60B84280F281808B
:10384000B9EB0809DFF8B003B0F9000000F2CA6074
:10385000C01B00FB09F9BAEB070A99FBFAF018EB59
:103860000000DFF89013B1F9001001F28D61884279
:1038700010DBDFF88013B1F9001001F5B0417331AE
:10388000814207DB0500DFF87003B0F9006006F243
:10389000CA660124DFF84003B0F9000005F0C4FB5C
:1038A000DFF83813B1F900104900814249DA0024E9
:1038B00047E0DFF84403B0F9000000F588403730F6
:1038C00082453EDBDFF83003B0F9000000F58840A8
:1038D0003730874235DAB9EB0809DFF81C03B0F955
:1038E000000000F588403730C01B00FB09F9BAEB37
:1038F000070A99FBFAF018EB0000BE49B1F9001075
:1039000001F28D6188420FDBBA49B1F9001001F56F
:10391000B0417331814207DB0500B748B0F9006060
:1039200006F5884637360124AB48B0F9000005F0AB
:103930007BFBAA49B1F9001049424900814200DAF3
:10394000002464B2002C14D0B5EB0808AB48B8EBE7
:10395000000842F20F70804513D2F71BA7483F1AA8
:1039600042F20F7087420CD2954805809648068037
:1039700007E094480088924908809448008892495A
:103980000880904840889E490880904840889D491A
:10399000088001208349087002E1844800780528E6
:1039A00040F0FE8087488549097830F811808748C3
:1039B0008249097830F811708748B0F9000018EB97
:1039C00040098648B0F9000017EB400A8948B0F971
:1039D000000000F28D6048452CDB8648B0F90000FD
:1039E00000F28D6040455CDABAEB07008149B1F91D
:1039F000001001F28D61B1EB08014843B9EB0801F9
:103A000090FBF1F038187C49B1F9001001F2CA615D
:103A1000884246DB7849B1F9001001F58841373119
:103A200081423EDB7349B1F9005005F28D65060015
:103A3000012436E06F48B0F9000000F5B040733063
:103A400081452EDB6B48B0F9000000F5B0407330C3
:103A5000804526DABAEB07006649B1F9001001F596
:103A6000B0417331B1EB08014843B9EB080190FB59
:103A7000F1F038186049B1F9001001F2CA618842CA
:103A80000FDB5D49B1F9001001F588413731814202
:103A900007DB5849B1F9005005F5B045733506000C
:103AA000012464B2012C6ED05348B0F9000000F23A
:103AB000CA6050452EDB5048B0F9000000F2CA60E1
:103AC000B84260DAB9EB08094B48B0F9000000F2DF
:103AD000CA60C01B00FB09F9BAEB070799FBF7F0B6
:103AE00018EB000840464349B1F9001001F28D611E
:103AF000884248DB3F49B1F9001001F5B04173310C
:103B0000814240DB05003C48B0F9006006F2CA661D
:103B1000012438E03848B0F9000000F5884037301B
:103B2000824530DB3448B0F9000000F5884037307A
:103B3000874228DAB9EB08092F48B0F9000000F5F0
:103B400088403730C01B00FB09F9BAEB070799FB27
:103B5000F7F018EB000840462649B1F9001001F2D1
:103B60008D6188420FDB2349B1F9001001F5B041A6
:103B70007331814207DB05001F48B0F9006006F58C
:103B800088463736012464B2012C09D10C480580DF
:103B90000D4806801348007850F010001149087055
:103BA000BDE8F0872A0C0020CF0B0020280C002055
:103BB0002B0C00200A0C0020CD0B0020290C00202B
:103BC000200B0020B8090020220B0020C009002093
:103BD000FE0A0020C8090020920B0020940B002050
:103BE000960B0020D40B0020DF0B0020F10B0020EF
:103BF000CA0B0020B00B0020B20B002079ECFFFFB5
:103C0000D0090020D80900202DE9F0410020002132
:103C1000DFF8AC2B1170002232E0DFF8A81B0B7824
:103C2000DFF8A41B09785B1AD2B2D318022B0AD092
:103C3000DFF8901B0B78DFF8901B09785B1AD2B283
:103C4000D318242B0CD1DFF8841BD2B231F9121017
:103C5000022391FBF3F1DFF8743BD2B223F8121088
:103C6000DFF8681BD2B231F91210884207DADFF8A8
:103C7000500B0270DFF8540BD2B230F91200521C14
:103C8000D2B2092AC9DB00200021DFF8442B1170D1
:103C9000002232E0DFF83C1B0B78DFF83C1B097890
:103CA0005B1AD2B2D318022B0AD0DFF8281B0B788C
:103CB000DFF8241B09785B1AD2B2D3181C2B0CD165
:103CC000DFF8181BD2B231F91210022391FBF3F185
:103CD000DFF8083BD2B223F81210DFF8001BD2B293
:103CE00031F91210884207DADFF8E40A0270DFF8CF
:103CF000EC0AD2B230F91200521CD2B2092AC9DB46
:103D0000DFF8C00A0178DFF8B80A00784118DFF858
:103D1000B80A0078091ADFF8380C0170DFF8B40A25
:103D20000178DFF8AC0A00784118DFF8AC0A0078B7
:103D3000091ADFF8AC0A0170DFF8840A0078401E27
:103D4000002807D4DFF8780A0078401E092801D23D
:103D5000012000E0002000280CD0DFF8700ADFF816
:103D6000601A097800EB410030F8020CDFF8741A91
:103D7000088003E00020DFF86C1A0880DFF8400AB2
:103D80000078092801D2012000E0002000280AD094
:103D9000DFF8380ADFF8281A097830F81100DFF860
:103DA000481A088003E00020DFF83C1A0880DFF89A
:103DB000100A0078401C002807D4DFF8040A0078B5
:103DC000401C092801D2012000E0002000280BD06F
:103DD000DFF8F809DFF8E819097800EB41004088BE
:103DE000DFF8081A088003E00020DFF8001A0880D6
:103DF000DFF8DC090078401E002807D4DFF8D0097E
:103E00000078401E092801D2012000E0002000288F
:103E10000CD0DFF8C809DFF8B819097800EB4100C9
:103E200030F8020CDFF8C819088003E00020DFF842
:103E3000C0190880DFF898090078092801D201200C
:103E400000E0002000280AD0DFF89009DFF8801990
:103E5000097830F81100DFF89C19088003E0002091
:103E6000DFF890190880DFF868090078401C002806
:103E700007D4DFF85C090078401C092801D2012032
:103E800000E0002000280BD0DFF85009DFF84019CF
:103E9000097800EB41004088DFF85C19088003E0F6
:103EA0000020DFF854190880DFF83809B0F9000065
:103EB000002807D5DFF82C09B0F900004042DFF8F0
:103EC00024190880DFF82009B0F90000002807D580
:103ED000DFF81409B0F900004042DFF80C1908803F
:103EE000DFF80809B0F90000002807D5DFF8FC0862
:103EF000B0F900004042DFF8F4180880DFF8F0085D
:103F0000B0F90000002807D5DFF8E408B0F9000098
:103F10004042DFF8DC180880DFF8D808B0F900006C
:103F2000002807D5DFF8CC08B0F900004042DFF8E0
:103F3000C4180880DFF8C008B0F90000002807D5D1
:103F4000DFF8B408B0F900004042DFF8AC18088090
:103F5000DFF8FC09007804282DDADFF8640800781F
:103F6000801C002807D4DFF858080078801C092836
:103F700001D2012000E00020002809D0DFF84C0821
:103F8000DFF83C18097800EB4100B0F9040000E0CC
:103F90000020DFF858180C88DFF84C18B1F9001031
:103FA000081A05F041F8062190FBF1F00419DFF83A
:103FB0004C08048047E0DFF89809007823282DDBBF
:103FC000DFF8FC070078801E002807D4DFF8F00730
:103FD0000078801E092801D2012000E0002000287E
:103FE00009D0DFF8E807DFF8D817097800EB4100BF
:103FF00030F9040C00E00020DFF8E8170C88DFF847
:10400000E817B1F90010081A05F00EF8062190FB28
:10401000F1F00419DFF8E407048014E0DFF8C807C2
:104020000488DFF8C007B0F90000DFF8C017B1F965
:104030000010401A04F0F8FF062190FBF1F004197B
:10404000DFF8B80704800020DFF8B41708800020EC
:10405000DFF8B0170880002229E0DFF8AC07D2B201
:1040600000EB4200B0F90600DFF89417B1F9001038
:10407000884208DADFF89007D2B200EB4200C0882D
:10408000DFF87C170880DFF88007D2B230F9120021
:10409000DFF87017B1F90010884207DADFF8680717
:1040A000D2B230F81200DFF85C170880521CD2B28E
:1040B000032AD2DB002213E0DFF85007D2B230F936
:1040C0001200DFF84017B1F90010884207DADFF874
:1040D0003C07D2B230F81200DFF828170880521CD3
:1040E000D2B2DFF8DC060078801E8242E4DBDFF823
:1040F000D0060278921C13E0DFF81007D2B230F934
:104100001200DFF8FC16B1F90010884207DADFF878
:10411000FC06D2B230F81200DFF8E4160880521C18
:10412000D2B2092AE8DBDFF8D806B0F90000404235
:10413000DFF8CC160880DFF8CC06B0F9000040426A
:10414000DFF8C0160880DFF89806007804282DDA1A
:10415000DFF87C060078801C002807D4DFF87006A2
:104160000078801C092801D2012000E000200028EE
:1041700009D0DFF86806DFF85816097800EB41002F
:10418000B0F9040000E00020DFF86C160C88DFF8BE
:104190006416B1F90010081A04F046FF062190FBDE
:1041A000F1F00419DFF86806048047E0DFF8300614
:1041B00000781B282DDBDFF818060078801E002809
:1041C00007D4DFF80C060078801E092801D20120F0
:1041D00000E00020002809D0DFF80006DFF8F01525
:1041E000097800EB410030F9040C00E00020DFF812
:1041F00000160C88DFF8FC15B1F90010081A04F05D
:1042000013FF062190FBF1F00419DFF80406048087
:1042100014E0DFF8E0050488DFF8D405B0F9000009
:10422000DFF8D415B1F90010401A04F0FDFE0621A4
:1042300090FBF1F00419DFF8D80504800020DFF8C6
:104240007C1C08800020DFF8781C0880002229E010
:10425000DFF8700CD2B200EB4200B0F90600DFF8D4
:104260005C1CB1F90010884208DADFF8580CD2B2B1
:1042700000EB4200C088DFF8441C0880DFF8440CE3
:10428000D2B230F91200DFF8381CB1F900108842C0
:1042900007DADFF8300CD2B230F81200DFF8201C59
:1042A0000880521CD2B2032AD2DB002213E0DFF8CE
:1042B000180CD2B230F91200DFF8041CB1F900106A
:1042C000884207DADFF8000CD2B230F81200DFF8CB
:1042D000F01B0880521CD2B2DFF8F4040078801E74
:1042E0008242E4DBDFF8E8040278921C13E0DFF896
:1042F000D80BD2B230F91200DFF8C01BB1F90010B0
:10430000884207DADFF8C00BD2B230F81200DFF8CB
:10431000AC1B0880521CD2B2092AE8DBDFF89C0BE8
:10432000B0F900004042DFF8941B0880DFF8900BE2
:10433000B0F900004042DFF8881B0880DFF88C0BE2
:1043400090F90000032801DA012415E0DFF8800B62
:1043500090F90000801C242801DB00240CE0DFF829
:10436000A404B0F90000DFF89814B1F900108842F5
:1043700001DA032400E00224DFF8580B90F9000072
:10438000032801DA012515E0DFF84C0B90F9000055
:10439000801C1C2801DB00250CE0DFF8240BB0F9A1
:1043A0000000DFF8181BB1F90010884201DA03257C
:1043B00000E00225DFF898050078032809D1DFF82E
:1043C0001C0B0088B0F5F06F01DA002072E00120CC
:1043D00070E0DFF87C050078042809D1DFF8FC0ADA
:1043E0000088B0F5206F01DA022063E0032061E06D
:1043F000DFF85C050078052809D1DFF8E00A0088BD
:10440000B0F5486F01DA042054E0052052E0DFF8EF
:1044100040050078062809D1DFF8C00A0088B0F509
:10442000706F01DA062045E0072043E0DFF8200541
:10443000007823280AD1DFF8A40A008845F28171A8
:10444000884201DB282035E0272033E0DFF8000533
:10445000007822280AD1DFF8840A008845F2015149
:10446000884201DB262025E0252023E0DFF8E00458
:10447000007821280AD1DFF8640A008845F28121FA
:10448000884201DB242015E0232013E0DFF8C0047C
:10449000007820280AD1DFF8440A008845F201019B
:1044A000884201DB222005E0212003E0DFF8A004A0
:1044B0000078401CC0B2082800DA0124C0B22128CC
:1044C00000DB0024DFF818130978032909D1DFF88D
:1044D000101A0988B1F5F06F01DA00216AE00121B4
:1044E00068E0BF490978042909D1DFF8F41909887F
:1044F000B1F5206F01DA02215CE003215AE0B849EE
:104500000978052909D1DFF8D8190988B1F5486F6C
:1045100001DA04214EE005214CE0B1490978062971
:1045200009D1DFF8BC190988B1F5706F01DA0621ED
:1045300040E007213EE0AA4909781B290AD1DFF8AB
:10454000A019098844F28132914201DB202131E037
:104550001F212FE0A24909781A290AD1DFF8801912
:10456000098844F20112914201DB1E2122E01D2143
:1045700020E09B49097819290AD1DFF864190988D4
:1045800043F68162914201DB1C2113E01B2111E003
:104590009349097818290AD1DFF84419098843F6A4
:1045A0000142914201DB1A2104E0192102E08C4909
:1045B0000978491CC9B2082900DA0125C9B21929AC
:1045C00000DB002564B2012C02D064B2032C1CD1A4
:1045D000C9B22326C0B206FB0106DFF8982CB6B29A
:1045E000935DDFF8942C138064B2032C29D1C9B2F7
:1045F0002322C0B202FB0102961FDFF8802CB6B264
:10460000925DDFF87C6C32801BE0C9B22322C0B21D
:1046100002FB0102961FDFF8642CB6B2935DDFF84F
:10462000602C138064B2022C0BD1C9B22326C0B215
:1046300006FB0106DFF83C2CB6B2925DDFF8386C61
:1046400032806DB2012D02D06DB2032D1DD1C9B2E1
:104650002926C0B206FB0106DFF8282CB6B2925D0F
:10466000DFF8246C32806DB2032D2BD10E00F6B230
:10467000B61F2921C0B201FB0606DFF8100CB6B246
:10468000805DDFF80C1C08801CE0C9B28E1F292257
:10469000C0B202FB0606DFF8F42BB6B2925DDFF87B
:1046A000F06B32806DB2022D0CD10E00F6B22921D2
:1046B000C0B201FB0606DFF8CC0BB6B2805DDFF8B6
:1046C000C81B0880DFF8C40DB0F900000128C0F253
:1046D000A480DFF808080088B0F5A06F01DA002098
:1046E00034E0DFF8F8070088B0F58C5F0DDADFF80A
:1046F000A00D0088DFF8E4170988B1F5A0614843F0
:104700004FF4486190FBF1F020E0DFF8D00700881B
:1047100045F60121884201DB002017E0DFF8BC07E5
:10472000008844F6815188420DDBDFF8640D008873
:10473000DFF8A8170988D1F5B44148434FF4486120
:1047400090FBF1F002E0DFF8480D0088DFF89007F9
:104750000088B0F5A06F01DA00205EE0DFF8800786
:104760000088B0F58C5F0DDADFF8240D0088DFF8E3
:1047700070170988B1F5A06148434FF4486190FB78
:10478000F1F04AE0DFF85807008844F201618842FE
:1047900001DB002041E0DFF84807008843F6811183
:1047A000884237DBDFF8E80C0088DFF83417098827
:1047B000D1F58C4148434FF4486190FBF1F02CE077
:1047C000150C0020E30B0020E10B00201008002056
:1047D000160C0020E40B0020E20B0020240800202F
:1047E000180C0020760B00207E0B0020780B002098
:1047F0007A0B0020800B00207C0B00205E0B002039
:104800005A0B0020560B0020D80700207C05002002
:10481000600B0020DFF8780C00884D4800780328F2
:104820004CD1DFF8740DB0F90000DFF8A41DB1F928
:1048300000100818002841D0DFF8980D0188DFF833
:10484000940DB0F900607600DFF84C0DB0F90070FF
:10485000DFF87C0DB0F900003F1A7E43DFF8380D19
:10486000B0F90070DFF8680DB0F90000C71996FBC9
:10487000F7F04118DFF85C0D0180DFF85C0D01886E
:10488000DFF8540DB0F900607600DFF80C0DB0F9D8
:104890000070DFF83C0DB0F900003F1A7E43DFF8EE
:1048A000F80CB0F90070DFF8280DB0F90000C71956
:1048B00096FBF7F04118DFF8200D018024480078BE
:1048C000232850D1DFF8D00CB0F90000DFF80C1D20
:1048D000B1F900100818002845D0DFF8F80C01885D
:1048E000DFF8F00CB0F900607600DFF8AC0CB0F93E
:1048F0000070DFF8E80CB0F900003F1A7E43DFF8E3
:10490000980CB0F90070DFF8D40CB0F90000C719AA
:1049100096FBF7F04118DFF8BC0C0180DFF8B80C0B
:104920000188DFF8B40CB0F900607600DFF8680C9D
:10493000B0F90070DFF8A40CB0F900003F1A7E4314
:10494000DFF8540CB0F90070DFF8900C02E000BF03
:10495000170C0020B0F90000C71996FBF7F04118BA
:10496000DFF8740C0180DFF8780C007803284CD154
:10497000DFF8700CB0F90000DFF86C1CB1F9001022
:104980000818002841D0DFF8500C0188DFF8480CE7
:10499000B0F900607600DFF84C0CB0F90070DFF879
:1049A000480CB0F900003F1A7E43DFF8380CB0F92C
:1049B0000070DFF8340CB0F90000C71996FBF7F06F
:1049C0004118DFF8140C0180DFF8080C0188DFF8CB
:1049D000040CB0F900607600DFF8080CB0F9007044
:1049E000DFF8040CB0F900003F1A7E43DFF8F40B47
:1049F000B0F90070DFF8F00BB0F90000C71996FBB2
:104A0000F7F04118DFF8CC0B0180DFF8D40B007809
:104A10001B284CD1DFF8CC0BB0F90000DFF8CC1B21
:104A2000B1F900100818002841D0DFF8AC0B01885C
:104A3000DFF8A40BB0F900607600DFF8A80BB0F93E
:104A40000070DFF8A80BB0F900003F1A7E43DFF8D2
:104A5000940BB0F90070DFF8940BB0F90000C7199F
:104A600096FBF7F04118DFF8700B0180DFF8640B5C
:104A70000188DFF8600BB0F900607600DFF8640BA6
:104A8000B0F90070DFF8640BB0F900003F1A7E4304
:104A9000DFF8500BB0F90070DFF8500BB0F90000F0
:104AA000C71996FBF7F04118DFF8280B018064B2B4
:104AB000022C02D064B2032C35D1DFF8180BB0F908
:104AC0000000642190FBF1F0DFF8241BB1F9003005
:104AD000DFF8201BB1F90010CB1810EB63000028A1
:104AE00000F0C480DFF898170988002900F0BE8024
:104AF000DFF8FC1AB1F90030DFF8F81AB1F90060FC
:104B0000DFF8741709884E43DFF87417098896FB9D
:104B1000F1F109B25B1A80214B4393FBF0F0DFF80F
:104B2000D81A0880A2E064B2012C02D064B2032C2F
:104B30004DD1DFF8A00AB0F90000642190FBF1F03C
:104B4000DFF8AC1AB1F900100818002815D0DFF80A
:104B5000A01AB1F90010DFF87C6AB6F900609BB2C8
:104B600003FB06F31B121BB2CB1A4FF480714B43AD
:104B700093FBF0F0DFF8801A0880DFF87C0AB0F9C8
:104B8000000000280BD5DFF8700AB0F900004042A1
:104B9000C000C0104042DFF8601A088009E0DFF86A
:104BA000580AB0F9001009204143C910DFF8480A3B
:104BB000018064B2032C59D1DFF83C0AB0F900003F
:104BC000002853D50020DFF8301A08804EE0DFF8C7
:104BD000040AB0F90000642190FBF1F0DFF8141A28
:104BE000B1F900100818002817D0DFF8081AB1F939
:104BF0000010DFF8E069B6F900609BB203FB06F332
:104C00001B121BB2CB1A4FF480714B4393FBF0F095
:104C100000B24042DFF8E0190880DFF8DC09B0F9A3
:104C20000000012809DBDFF8D009B0F90000C0005E
:104C3000C010DFF8C41908800BE0DFF8BC09B0F938
:104C40000010494209204143C9104942DFF8A80930
:104C5000018064B2022C09D1DFF89C09B0F9000090
:104C6000012803DB0020DFF8901908806DB2022DC7
:104C700002D06DB2032D31D1DFF85C09B0F900002C
:104C8000642190FBF1F08D49B1F900208C49B1F914
:104C900000108A1810EB6200002800F0BE80DFF8D8
:104CA000F0150988002900F0B8808449B1F9002086
:104CB0008349B1F90030DFF8D01509884B43DFF89C
:104CC000D015098893FBF1F109B2521A80214A43A9
:104CD00092FBF0F0DFF8241908809EE06DB2012D00
:104CE00002D06DB2032D4BD1DFF8EC08B0F9000013
:104CF000642190FBF1F07149B1F900100818002807
:104D000014D06E49B1F90010DFF8CC38B3F9003097
:104D100092B202FB03F2121212B28A1A4FF480719D
:104D20004A4392FBF0F0DFF8D4180880DFF8CC0893
:104D3000B0F9000000280BD5DFF8C008B0F900007A
:104D40004042C000C0104042DFF8B018088009E0BF
:104D5000DFF8A808B0F9001009204143C910DFF8B6
:104D60009C0801806DB2032D57D1DFF89008B0F98F
:104D70000000002851D50020DFF8801808804CE0A2
:104D8000DFF85408B0F90000642190FBF1F04C49C1
:104D9000B1F900100818002816D04949B1F90010DF
:104DA000DFF83438B3F9003092B202FB03F212128A
:104DB00012B28A1A4FF480714A4392FBF0F000B2AB
:104DC0004042DFF838180880DFF83008B0F90000FA
:104DD000012809DBDFF82408B0F90000C000C0108A
:104DE000DFF8181808800BE0DFF81008B0F90010A1
:104DF000494209204143C9104942DFF800080180B7
:104E00006DB2022D09D1DFF8F407B0F900000128D6
:104E100003DB0020DFF8E4170880DFF8DC07B0F9D7
:104E20000000012806DBDFF8D0070088DFF8C8178C
:104E3000088010E0DFF8C007B0F90000012804DBAB
:104E40000020DFF8B417088005E0DFF8AC07008821
:104E5000DFF8A4170880DFF8A407B0F900000128E4
:104E600006DBDFF898070088DFF89017088010E06D
:104E7000DFF88807B0F90000012804DB0020DFF824
:104E80007C17088005E0DFF874070088DFF86C17EE
:104E9000088012480088B0F5F06F23DADFF8580771
:104EA000B0F900000D490988D1F5F0618900B0EB37
:104EB0005110DFF8441708802AE000BF5C0B002087
:104EC000580B0020E4070020900500200D0C002066
:104ED0000E0C00200F0C0020100C0020320B0020C4
:104EE000340B0020DFF8740D008845F28171884290
:104EF0000EDBDFF80407B0F90000DFF8601D098859
:104F0000B1F5AF41890010EB5110DFF8EC160880C5
:104F1000DFF8480D0088B0F5DC6F0EDADFF8D80650
:104F2000B0F90000DFF8341D0988D1F5DC61C90053
:104F3000B0EB5110DFF8C0160880DFF8200D0088B4
:104F400045F6210188420FDBDFF8AC06B0F900100E
:104F5000DFF8080D0288DFF8080D8218D00011EB89
:104F60005011DFF894060180DFF8F80C0088B0F5E6
:104F7000F06F0FDADFF88406B0F90000DFF8E41C08
:104F80000988D1F5F0618900B0EB5110DFF86C169B
:104F9000088015E0DFF8CC0C008844F281318842AB
:104FA0000EDBDFF85806B0F90000DFF8B81C0988FE
:104FB000B1F58741890010EB5110DFF840160880E9
:104FC000DFF8A00C0088B0F5DC6F0EDADFF82C06F5
:104FD000B0F90000DFF88C1C0988D1F5DC61C9004C
:104FE000B0EB5110DFF814160880DFF8780C008859
:104FF00044F2214188420FDBDFF80006B0F90010CF
:10500000DFF8600C0288DFF8600C8218D00011EB2A
:105010005011DFF8E8050180002600275FF0000846
:10502000002164B2002C59D1DFF8CC05B0F9008022
:105030000FFA88F8B8F1000F01D55FF000080FFAF9
:1050400088F8002000FB08F8A02098FBF0F1DFF8BA
:105050000C0C0288DFF8140C90F800804FF42070DC
:1050600000FB1828DFF8F40B008845F281729042AB
:1050700020DA0FFA88F8B8F1010FC0F228810FFA90
:1050800088F8B8F5A07F0ADA09B20FFA88F8D8F5DF
:10509000A07041434FF4207091FBF0F086190FFA95
:1050A00088F8002000FB08F84FF4207098FBF0F01F
:1050B00086190CE10FFA88F8B8F1010FC0F20781E8
:1050C000300009B20FFA88F8D8F5A07808FB01F88B
:1050D0004FF4207198FBF1F6861BF8E064B2012CC6
:1050E0005DD1DFF81405B0F90080D8F100080FFA9F
:1050F00088F8B8F1000F01D55FF000080FFA88F8C2
:10510000002000FB08F8A02098FBF0F1DFF84C0B22
:105110000288DFF8580B90F800804FF4207000FBF5
:105120001828DFF8380B0088B0F5F06F24DB0FFA91
:1051300088F8B8F1010F80F2CA800FFA88F8B8F544
:10514000A07F0BDA320009B20FFA88F818F5A070C8
:1051500041434FF4207091FBF0F6961B31000FFA9B
:1051600088F8D8F10008002000FB08F84FF4207000
:1051700098FBF0F68E1BAAE00FFA88F8B8F1010F41
:1051800080F2A58009B20FFA88F818F5A07808FB1C
:1051900001F84FF4207098FBF0F0861997E064B2A4
:1051A000022C03D064B2032C40F091805FF0000821
:1051B000DFF8B00A0088B0F5B45F14DADFF83C0419
:1051C000B0F90000002829D5404600B2DFF8941A53
:1051D0000988D1F5B45148434FF4B45190FBF1F034
:1051E000B8EB00081AE0DFF87C0A008843F281413E
:1051F000884213DBDFF80404B0F9000001280DDB5E
:10520000404600B2DFF85C1A0988B1F552514843B4
:105210004FF4B45190FBF1F0B8EB00080FFA88F8A6
:10522000DFF8D803B0F9000003F0FEFE00FB08F839
:10523000A02098FBF0F1DFF8240A0288DFF82C0A9E
:1052400090F800804FF4207000FB18280FFA88F8BF
:10525000B8F1A10F1EDB300009B20FFA88F8D8F5BB
:10526000A07808FB01F84FF4207198FBF1F6861B3B
:105270002DE000BF99A00100980B00201CA50100A3
:105280009A0B00209FA901009C0B0020F2AD0100A9
:105290009E0B00200FFA88F818F1A00F0CDA09B263
:1052A0000FFA88F818F5A07808FB01F84FF4207081
:1052B00098FBF0F086190AE0300009B20FFA88F87E
:1052C00008FB01F84FF4207198FBF1F6861B6DB2D4
:1052D000002D58D1C948B0F900800FFA88F8B8F10C
:1052E000000F01D55FF000080FFA88F8002000FBDE
:1052F00008F8A02098FBF0F1DFF868090288DFF8D1
:10530000700990F800804FF4207000FB1828DFF837
:105310005409008844F28132904220DA0FFA88F86A
:10532000B8F1010FC0F217810FFA88F8B8F5A07F25
:105330000ADA09B20FFA88F8D8F5A07041434FF4A1
:10534000207091FBF0F0C7190FFA88F8002000FBDD
:1053500008F84FF4207098FBF0F0C719FBE00FFA43
:1053600088F8B8F1010FC0F2F680380009B20FFAE0
:1053700088F8D8F5A07808FB01F84FF4207198FB65
:10538000F1F7C71BE7E06DB2012D5CD19B48B0F986
:105390000080D8F100080FFA88F8B8F1000F01D5A5
:1053A0005FF000080FFA88F8002000FB08F8A02042
:1053B00098FBF0F1DFF8AC080288DFF8B40890F849
:1053C00000804FF4207000FB1828DFF89808008850
:1053D000B0F5F06F24DB0FFA88F8B8F1010F80F216
:1053E000BA800FFA88F8B8F5A07F0BDA3A0009B254
:1053F0000FFA88F818F5A07041434FF4207091FB24
:10540000F0F7D71B39000FFA88F8D8F10008002010
:1054100000FB08F84FF4207098FBF0F7CF1B9AE0E0
:105420000FFA88F8B8F1010F80F2958009B20FFAEF
:1054300088F818F5A07808FB01F84FF4207098FB65
:10544000F0F0C71987E06DB2022D03D06DB2032DC5
:1054500040F081805FF00008DFF800080088B0F5B8
:10546000B45F17DA6448B0F9000000282CD5404634
:1054700000B2DFF8E8170988D1F5B45148434FF47A
:10548000B45190FBF1F0B8EB00081DE0240B0020B4
:10549000880B0020DFF8C407008844F681018842A9
:1054A00012DB5548B0F9000001280DDB404600B280
:1054B000DFF8A8170988B1F5914148434FF4B4517A
:1054C00090FBF1F0B8EB00080FFA88F84A48B0F901
:1054D000000003F0A9FD00FB08F8A02098FBF0F104
:1054E000DFF880070288DFF8880790F800804FF423
:1054F000207000FB18280FFA88F8B8F1A10F0DDB17
:10550000380009B20FFA88F8D8F5A07808FB01F83E
:105510004FF4207198FBF1F7C71B1CE00FFA88F8D5
:1055200018F1A00F0CDA09B20FFA88F818F5A07874
:1055300008FB01F84FF4207098FBF0F0C7190AE05F
:10554000380009B20FFA88F808FB01F84FF420710F
:1055500098FBF1F7C71B2848B0F9000003F064FD81
:1055600080462648B0F9000003F05EFDB8EB000865
:105570000FFA88F8B8F1010F19DB1F48B0F90000E5
:1055800001280BDB36B20FFA88F8192000FB08F867
:1055900016EB28263EE000BF7E0B002036B20FFA45
:1055A00088F8192000FB08F8B6EB282632E01348EB
:1055B000B0F90000012823DB3FB20FFA88F8D8F1D8
:1055C0000008192000FB08F817EB282722E000BF8D
:1055D000780B00205E0B0020600B0020760B002073
:1055E000180C0020800B00207C0B00207A0B002080
:1055F0005A0B0020560B0020620B0020640B002089
:105600003FB20FFA88F8D8F10008192000FB08F81B
:10561000B7EB2827DFF8580D00883618DFF8500D53
:105620000680DFF8500D00883F18DFF8480D07802E
:105630000027002600206DB2012D40F0D88064B212
:10564000012C67D1DFF81C060088B0F5825F2BDAE9
:10565000DFF8200DB0F90000002825D5DFF8100D87
:10566000B0F9000003F0E0FC4010DFF8081DB1F9CC
:105670000010C84218DADFF8EC050488D4F582542B
:10568000DFF8F00CB0F900506D42DFF8E40CB0F92F
:10569000000003F0C9FC2D1A6D1004FB05F44FF453
:1056A000206094FBF0F0C719DFF8B0050088B0F572
:1056B000825F80F27181DFF8B80CB0F90000002839
:1056C00040F16A81DFF8AC0CB0F9000003F0ACFCEB
:1056D0004010DFF89C1CB1F90010C84280F25C81D8
:1056E000DFF878050488D4F58254DFF8840CB0F92B
:1056F00000506D42DFF87C0CB0F9000003F094FC20
:105700002D1A6D1004FB05F44FF4206094FBF0F0AB
:10571000861941E164B2002C40F03E81DFF8440577
:105720000088B0F5825F2BDADFF8480CB0F9000092
:10573000002825D5DFF8380CB0F9000003F074FC20
:105740004010DFF8301CB1F90010C84218DADFF859
:1057500014050488D4F58254DFF8180CB0F9005011
:105760006D42DFF80C0CB0F9000003F05DFC2D1A5F
:105770006D1004FB05F44FF4206094FBF0F03F1A29
:10578000DFF8D804008844F6C1618842C0F2048181
:10579000DFF8DC0BB0F900000128C0F2FD80DFF873
:1057A000D40BB0F9000003F03FFC4010DFF8C01B41
:1057B000B1F90010884280F2EF80DFF8A00404887D
:1057C000DFF8B40B0419DFF8A80BB0F90050DFF8CC
:1057D000A40BB0F9000003F027FC2D1A6D1004FB98
:1057E00005F44FF4206094FBF0F08619D4E06DB21C
:1057F000002D40F0D18064B2012C67D1DFF8640441
:10580000008843F6C12188422ADBDFF8680BB0F933
:105810000000012824DBDFF8580BB0F9000003F08A
:1058200003FC4010DFF84C1BB1F90010884217DA76
:10583000DFF830040488B4F56B54DFF8380BB0F9A6
:105840000050DFF82C0BB0F9000003F0EDFB2D1A2F
:105850006D1004FB05F44FF4206094FBF0F0C719C1
:10586000DFF8F8030088B0F5825F80F29580DFF8FA
:10587000000BB0F90000002840F18E80DFF8F40A38
:10588000B0F9000003F0D0FB4010DFF8E41AB1F9E2
:105890000010C84280F28080DFF8C0030488D4F58D
:1058A0008254DFF8CC0AB0F900506D42DFF8C40A28
:1058B000B0F9000003F0B8FB2D1A6D1004FB05F4DD
:1058C0004FF4206094FBF0F0361A65E064B2002CCF
:1058D00062D1DFF89003008843F6C12188422ADBB9
:1058E000DFF8900AB0F90000012824DBDFF8800A15
:1058F000B0F9000003F098FB4010DFF8781AB1F916
:105900000010884217DADFF85C030488B4F56B54A2
:10591000DFF8600AB0F90050DFF8540AB0F900006F
:1059200003F082FB2D1A6D1004FB05F44FF4206088
:1059300094FBF0F03F1AC948008844F6C1618842E0
:105940002ADBDFF82C0AB0F90000012824DBDFF89D
:10595000240AB0F9000003F067FB4010DFF8101ACA
:10596000B1F90010884217DABC480488DFF8080A49
:105970000419DFF8FC09B0F90050DFF8F809B0F9B4
:10598000000003F051FB2D1A6D1004FB05F44FF4D9
:10599000206094FBF0F0361AB0480088B0F5486FEC
:1059A0005ADADFF8CC09B0F90000002832D53FB24E
:1059B000DFF8BC09B0F900004042A8490988D1F5D8
:1059C000486148438000B7EB5037DFF8A809B0F9C9
:1059D000000000280FD536B2DFF89809B0F90010A2
:1059E00049429E480088D0F5486041430520414324
:1059F000B6EB513692E036B2DFF87809B0F9001014
:105A000096480088D0F5486041430520414316EB95
:105A1000513683E03FB2DFF85809B0F900108F48E3
:105A20000088D0F5486041430320414317EB5137CC
:105A30008A480088B0F5F06F70DA3FB2DFF83009BD
:105A4000B0F9001085480088D0F5F06041433C2053
:105A5000414317EB513761E08048008845F28121CE
:105A600088425BDBDFF80809B0F90000012831DB70
:105A70003FB2DFF8FC08B0F9000078490988B1F5B9
:105A8000A5414843800017EB5037DFF8E808B0F92C
:105A9000000000280FD536B2DFF8D808B0F90010A2
:105AA00049426E480088B0F5A54041430520414376
:105AB000B6EB513632E036B2DFF8B808B0F9001074
:105AC00066480088B0F5A54041430520414316EBE8
:105AD000513623E03FB2DFF89808B0F90010494290
:105AE0005E480088B0F5A540414303204143B7EB31
:105AF00051375A48008845F2817188420EDB3FB227
:105B0000DFF86C08B0F90010494254480088B0F53D
:105B1000AF4041433C204143B7EB513751480088E7
:105B2000B0F5486F5BDADFF84C08B0F900000028E8
:105B300032D536B2DFF83C08B0F90000404249499E
:105B40000988D1F5486148438000B6EB5036DFF84C
:105B50002008B0F9000000280FD53FB2DFF8100888
:105B6000B0F9001049423F480088D0F548604143F1
:105B700005204143B7EB5137A3E03FB2DFF8F00710
:105B8000B0F9001037480088D0F54860414305203F
:105B9000414317EB513794E036B2DFF8D807B0F93C
:105BA000001030480088D0F548604143032041434D
:105BB00016EB51362B480088B0F5F06F80F28180EB
:105BC00036B2DFF8B007B0F9001026480088D0F5EB
:105BD000F06041433C20414316EB513671E02148CF
:105BE000008843F6816188426BDBDFF88807B0F9F3
:105BF000000001283EDB36B2DFF87807B0F900007C
:105C000018490988B1F57A514843800016EB50369F
:105C1000DFF85C07B0F9000000280FD53FB2DFF8CD
:105C20005007B0F9001049420E480088B0F57A508C
:105C3000414305204143B7EB513742E03FB2DFF823
:105C40003007B0F9001007480088B0F57A5041439A
:105C50000520414317EB513733E000BF320B0020E2
:105C6000E0A7FFFF340B0020E0BBFFFFE30B0020A9
:105C7000E40B002036B2DFF8FC06B0F90010494210
:105C8000DFF8C80B0088B0F57A5041430320414348
:105C9000B6EB5136DFF8B40B008844F2813188420C
:105CA0000FDB36B2DFF8CC06B0F900104942DFF85E
:105CB0009C0B0088B0F5874041433C204143B6EB44
:105CC0005136DFF8480C0088D0F5C850DFF87C1B4F
:105CD0000C88041B012C60DBDFF89406B0F900008F
:105CE000002819D5DFF88C06B0F90000002813D57C
:105CF0003FB2DFF87C06B0F900004042604317EB8A
:105D0000503736B2DFF86C06B0F90000404204FBB1
:105D100000F416EB543640E0DFF85406B0F900000A
:105D200000281AD5DFF84C06B0F90000012814DB72
:105D30003FB2DFF83C06B0F900004042604340004B
:105D4000B7EB503736B2DFF82C06B0F9000004FB91
:105D500000F4600016EB50361FE0DFF81406B0F9CF
:105D60000000012819DBDFF80C06B0F9000000285C
:105D700013D53FB2DFF8F805B0F9000060434000EA
:105D800017EB503736B2DFF8EC05B0F900004042AF
:105D900004FB00F46000B6EB5036DFF8700B0488AB
:105DA000DFF8A80A00880419B4F51144012C5EDB61
:105DB000DFF8BC05B0F90000012817DBDFF8B405F7
:105DC000B0F90000012811DB3FB2DFF8A405B0F9FB
:105DD00000006043B7EB503736B2DFF89805B0F9F2
:105DE000000004FB00F4B6EB543640E0DFF8800519
:105DF000B0F9000000281AD5DFF87805B0F90000E6
:105E0000012814DB3FB2DFF86805B0F9000040421A
:105E100060434000B7EB503736B2DFF85805B0F9B1
:105E2000000004FB00F4600016EB50361FE0DFF8C2
:105E30004005B0F90000012819DBDFF83805B0F99A
:105E40000000002813D53FB2DFF82405B0F90000A8
:105E50006043400017EB503736B2DFF81805B0F951
:105E60000000404204FB00F46000B6EB5036DFF85F
:105E70009C0A0088DFF8D4190C88041BB4F58C4404
:105E8000012C5FDBDFF8E804B0F90000012818DB23
:105E9000DFF8E004B0F90000002812D53FB2DFF8C7
:105EA000D004B0F900006043B7EB503736B2DFF8EA
:105EB000C404B0F90000404204FB00F416EB543671
:105EC00040E0DFF8AC04B0F9000000281BD5DFF893
:105ED000A404B0F90000002815D53FB2DFF8900403
:105EE000B0F90000404260434000B7EB503736B293
:105EF000DFF88004B0F90000404204FB00F46000C9
:105F0000B6EB50361EE0DFF86804B0F90000012857
:105F100018DBDFF86004B0F90000012812DB3FB2A3
:105F2000DFF84C04B0F900006043400017EB503735
:105F300036B2DFF84004B0F9000004FB00F4600062
:105F400016EB5036DFF804090088DFF8C0190C881A
:105F5000041BB4F54854012C5FDBDFF81404B0F9DE
:105F60000000002818D5DFF80C04B0F90000012863
:105F700012DB3FB2DFF8F803B0F9000040426043A3
:105F800017EB503736B2DFF8EC03B0F9000004FB32
:105F900000F4B6EB543640E0DFF8D403B0F900006B
:105FA00000281BD5DFF8CC03B0F90000002815D578
:105FB0003FB2DFF8BC03B0F900004042604340004C
:105FC000B7EB503736B2DFF8AC03B0F9000040420F
:105FD00004FB00F46000B6EB50361EE0DFF89003DF
:105FE000B0F90000012818DBDFF88803B0F90000E1
:105FF000012812DB3FB2DFF87803B0F900006043FC
:10600000400017EB503736B2DFF86803B0F90000F4
:1060100004FB00F4600016EB5036D54800883F18AA
:10602000D3480780D34800883618D2480680D04825
:10603000B0F9001000204143DFF81C0A008891FBF2
:10604000F0F0CB490880CB48B0F900100020414364
:10605000DFF8040A008891FBF0F0C6490880DFF8F9
:10606000FC09007810F0F700DFF8F0190870DFF88D
:10607000F0090078C00728D5DFF8E8090078022881
:106080000CDA0220DFF8DC190870DFF8D00900789C
:1060900050F00800DFF8C41908702CE0DFF8C409DC
:1060A000007802280CD10320DFF8B8190870DFF857
:1060B000AC09007850F00800DFF8A01908701AE069
:1060C0000420DFF8A019087015E0DFF898090078BF
:1060D00000280CD10120DFF88C190870DFF87C094A
:1060E000007850F00800DFF87419087003E002200F
:1060F000DFF870190870DFF86C090078032801D008
:1061000000F03CF9DFF8CC0B0088DFF8CC1B0880EE
:10611000DFF8BC0D0088DFF8C41B0880DFF8B80B7F
:10612000B0F90000012808DBDFF8AC0BB0F9000083
:106130008010DFF8AC1B088009E0DFF89C0BB0F999
:106140000000404280104042DFF8941B0880DFF8D6
:106150008C0BB0F90000012808DBDFF8800BB0F9E8
:1061600000008010DFF87C1B088009E0DFF86C0B72
:10617000B0F90000404280104042DFF8681B088000
:10618000DFF85C0BB0F900103F2041433F2091FB4A
:10619000F0F0DFF84C1B0880DFF8480BB0F9001076
:1061A0003F2041433F2091FBF0F0DFF8381B08808F
:1061B000DFF82C0BB0F90000402804DB3F20DFF8AB
:1061C000201B08800BE0DFF8180BB0F9000010F17D
:1061D0003F0F04DA7FF03E00DFF8041B0880DFF891
:1061E000040BB0F90000402804DB3F20DFF8F41A6C
:1061F00008800BE0DFF8EC0AB0F9000010F13F0F67
:1062000004DA7FF03E00DFF8DC1A0880DFF8D00AFD
:10621000B0F90000402804DB3F20DFF8C41A0880F2
:106220000BE0DFF8BC0AB0F9000010F13F0F04DA10
:106230007FF03E00DFF8A81A0880DFF8A80AB0F95E
:106240000000402804DB3F20DFF8981A08800BE0AC
:10625000DFF8900AB0F9000010F13F0F04DA7FF088
:106260003E00DFF8801A0880DFF8F807007802287F
:1062700004D0DFF8F007007803283FD1DFF8580A90
:10628000B0F90000202190FBF1F0DFF8DC1B088062
:10629000DFF8480AB0F90000202190FBF1F0DFF8A8
:1062A000CC1B0880DFF8C00BB0F90000092803DB25
:1062B0000820DFF8B41B0880DFF8AC0BB0F9000051
:1062C00010F1080F04DA7FF00700DFF89C1B08804C
:1062D000DFF8980BB0F90000092803DB0820DFF88D
:1062E0008C1B0880DFF8840BB0F9000010F1080F58
:1062F00004DA7FF00700DFF8741B0880DFF8E0099C
:10630000B0F90000801C05280BD2DFF8D809B0F9DD
:106310000000801C052804D20020DFF8B81B08709C
:1063200024E0DFF8BC09B0F9000001280FDBDFF83A
:10633000B409B0F90000012804DB0420DFF8941B45
:10634000087013E00120DFF88C1B08700EE0DFF806
:106350009409B0F90000012804DB0320DFF8741B66
:10636000087003E00220DFF86C1B0870BDE8F081C4
:10637000620B0020640B002040B1FFFF38B50621FE
:10638000DFF8D8060078C0F3C000C0B2002842D0C1
:106390000020DFF8441B0870DFF8400BB0F9000064
:1063A000012808DBDFF8340BB0F900008001DFF8CA
:1063B000301B086009E0DFF8240BB0F90000404210
:1063C00080014042DFF8181B0860DFF8180BB0F9B5
:1063D0000000012808DBDFF80C0BB0F90000800199
:1063E000DFF8041B086009E0DFF8F80AB0F90000E4
:1063F000404280014042DFF8F01A0860DFF8DC0A12
:106400000088DFF8D0180880DFF8D80A0088DFF8A5
:10641000C01A0880D9E0DFF8C40AB0F900000128EA
:1064200004DBDFF8B80A0288920106E0DFF8AC0A64
:10643000B0F9002052429201524212B2DFF8A00A93
:106440000068101A012808DBDFF8943A1B6808413D
:10645000C018DFF88C3A186008E0DFF8843A1B684F
:1064600040420841181ADFF8783A186012B2DFF893
:10647000700A0068121A100001280EDB40F6012293
:1064800090421ADBDFF8582A1268B0F5206012EB50
:10649000A012DFF84C0A02600FE0424240F60123EE
:1064A0009A420ADBDFF8382A1268DFF8403A181AF5
:1064B000B2EBA012DFF8280A0260DFF8240A0068B5
:1064C000012804DBDFF8180A0468A41103E0DFF8F0
:1064D000100A0468A411DFF80C0AB0F900000128C2
:1064E00004DBDFF8000A0288920106E0DFF8F40915
:1064F000B0F9002052429201524212B2DFF8E8098C
:106500000068101A012808DBDFF8DC391B68084135
:10651000C018DFF8D419086008E0DFF8CC391B6830
:1065200040420841181ADFF8C019086012B2DFF8BB
:10653000B8090068121A100001280EDB40F601218C
:1065400088421ADBDFF8A0190968B0F5206011EB6A
:10655000A011DFF8940901600FE0414240F60122EA
:1065600091420ADBDFF880190968DFF88029101AE8
:10657000B1EBA011DFF870090160DFF86C09006869
:10658000012804DBDFF860090568AD1103E0DFF8DE
:1065900058090568AD11DFF83C07B0F9000024B2D6
:1065A000001B02F041FD002809D5DFF82409B0F9ED
:1065B00000002DB2401B02F037FD002805D4DFF8A3
:1065C00014070480DFF80809058031BD012057E079
:1065D0008100DFF8402B40B232F81020DFF8343B66
:1065E00049B223F81120DFF82C2B40B232F81020EA
:1065F000DFF8203B49B203EB41035A80DFF8142B4C
:1066000040B232F81020DFF80C3B49B203EB4103F3
:106610009A80DFF8002B40B232F81020DFF8F43A0D
:1066200049B203EB4103DA80DFF8EC2A40B232F8DA
:106630001020DFF8E43A49B223F81120DFF8D82A15
:1066400040B232F81020DFF8D03A49B203EB4103F0
:106650005A80DFF8C42A40B232F81020DFF8B83A86
:1066600049B203EB41039A80DFF8AC2A40B232F81A
:106670001020DFF8A43A49B203EB4101CA80401E62
:1066800040B20028A4D5DFF8940A00688000DFF843
:106690008C1A0860DFF8880A00688000DFF8801A2A
:1066A0000860DFF8740D00788000DFF86C1D08705A
:1066B00070470020DFF8641A08600020DFF8601AD5
:1066C000086000216EE0DFF84C0A49B28A0030F819
:1066D000120080B2DFF83C2A49B28B0002EB430281
:1066E000528892B2920812EB9002DFF8280A49B25F
:1066F0008B0000EB4300808880B212EB9002DFF841
:10670000140A49B28B0000EB4300C08880B212EB40
:106710009002DFF8000A49B220F81120DFF8F809EA
:1067200049B28A0030F8120080B2DFF8EC2949B291
:106730008B0002EB4302528892B2920812EB900255
:10674000DFF8D40949B28B0000EB4300808880B2A7
:1067500012EB9002DFF8C00949B28B0000EB430056
:10676000C08880B212EB9002DFF8AC0949B220F881
:106770001120DFF8A8090268DFF8980949B230F85B
:1067800011008218DFF894090260DFF894090268AA
:10679000DFF8840949B230F811008218DFF8800967
:1067A0000260491C49B202298DDBDFF86C0C0078CD
:1067B000C0B28008DFF8601C0870704703202BE02F
:1067C0004100DFF8502940B232F81020DFF8443998
:1067D00049B223F81120DFF83C2940B232F81020EA
:1067E000DFF8303949B203EB41035A80DFF828293A
:1067F00040B232F81020DFF8203949B223F81120D6
:10680000DFF8142940B232F81020DFF80C3949B211
:1068100003EB41014A80401E40B20028D0D5DFF88A
:10682000FC0800684000DFF8F4180860DFF8F008A2
:1068300000684000DFF8E8180860DFF8DC0B00783B
:106840004000DFF8D41B087070470000340B0020B4
:106850000020DFF8C81808600020DFF8C4180860BE
:10686000002146E0DFF8AC0849B24A0030F81200D7
:1068700080B2DFF8A02849B24B0002EB43025288F5
:1068800092B2520812EB5002DFF8880849B220F8A1
:106890001120DFF8840849B24A0030F8120080B2B3
:1068A000DFF8742849B24B0002EB4302528892B2DF
:1068B000520812EB5002DFF8600849B220F81120AC
:1068C000DFF858080268DFF84C0849B230F81100C8
:1068D0008218DFF848080260DFF844080268DFF831
:1068E000380849B230F811008218DFF83408026025
:1068F000491C49B20229B5DBDFF81C0B0078C0B295
:106900004008DFF8141B087070470000320B0020AD
:1069100001202BE04100DFF8FC2740B232F81020C4
:10692000DFF8F03749B223F81120DFF8E82740B24A
:1069300032F81020DFF8DC3749B203EB41035A800C
:10694000DFF8D42740B232F81020DFF8CC3749B254
:1069500023F81120DFF8C02740B232F81020DFF80A
:10696000B83749B203EB41014A80401E40B20028CB
:10697000D0D5DFF8A80700684000DFF8A01708604E
:10698000DFF89C0700684000DFF894170860DFF824
:10699000880A00784000DFF8801A087070470020ED
:1069A000DFF8781708600020DFF87417086000210E
:1069B00046E0DFF8600749B24A0030F8120080B2C2
:1069C000DFF8502749B24B0002EB4302528892B2E3
:1069D000520812EB5002DFF83C0749B220F81120B0
:1069E000DFF8340749B24A0030F8120080B2DFF80D
:1069F000282749B24B0002EB4302528892B2520858
:106A000012EB5002DFF8100749B220F81120DFF82E
:106A10000C070268DFF8FC0649B230F81100821852
:106A2000DFF8F8060260DFF8F8060268DFF8E8062B
:106A300049B230F811008218DFF8E4060260491C00
:106A400049B20429B5DBDFF8D0090078C0B24008AC
:106A5000DFF8C41908707047880B0020D50B0020A0
:106A6000EF0B0020130C002010B5DFF8800A00782F
